S01200005553425F436C69656E742E737265636A
S1130000102B0020BD360000B9360000B9360000C0
S113001000000000000000000000000000000000DC
S1130020000000000000000000000000B9360000DD
S11300300000000000000000B9360000B9360000DE
S1130040B9360000B936000061100000312D0000FF
S1130050B9360000B9360000A9250000610F000080
S1130060B9360000B9360000B9360000B9360000D0
S1130070B9360000B9360000B9360000B9360000C0
S1130080B936000061110000711100000000000089
S11300900000000081110000B9360000B9360000EC
S11300A0B9360000B9360000B9360000B936000090
S11300B00000000010B5064C2378002B07D1054B37
S11300C0002B02D0044800E000BF0123237010BDC0
S11300D0F800002000000000CC3C000008B5084BEC
S11300E0002B03D00748084900E000BF0748036815
S11300F0002B00D108BD064B002BFBD09847F9E735
S113010000000000CC3C0000FC000020CC3C0000BF
S113011000000000024A1378013BDBB21370704701
S1130120A803002000207047002070477047C04695
S113013008B50022104B1A700021104B1A80104B86
S1130140A1201870813858705A809A801E38D8803F
S11301501A810C4BE12252021A601971597108225A
S11301609A710020084B9847002804D0024A13785B
S11301700133DBB2137008BDA80300205806002029
S1130180C4030020140100202938000030B583B0D6
S1130190454B1B78002B00D084E0444B9847002843
S11301A006D0434B1C88434B9847844206D179E0E0
S11301B03F4B1C88404B9847844273D0EFF3108325
S11301C05D425D4172B6BFF35F8F00223B4B1A70F4
S11301D03B4B1C78E4B262003A4BD35A002B1DD13E
S11301E0394A138801331380304B9847002803D1D0
S11301F0354B1B88632B08D92C4B984700280DD00E
S1130200314B1A88314B9A4208D8002D4AD001222A
S11302102A4B1A70BFF35F8F62B643E000222A4B69
S11302201A802B4B1B78002B05D163426341DBB250
S1130230234A137002E063425C41E4B201221A4B88
S11302401A70002D04D01D4B1A70BFF35F8F62B675
S1130250251C64001B4BE15A4139FF394B1E99415F
S1130260CCB2002C0DD0114B9847002804D0114B70
S113027098470F4B188007E00F4B98470C4B18809A
S113028002E000220A4B1A80AA0052199201114B73
S11302909A186B000B495B5A0F4900918120211C6D
S11302A00E4CA04703B030BDC00300204D18000021
S11302B0B40300206118000051180000F70000206A
S11302C01C01002020010020B80300201F030000AF
S11302D05406002024010020E1020000591B000004
S11302E008B500280DD1074B1B785A4253415B00D7
S11302F0002205495852054B1A70054B1A70054BDC
S1130300984708BD1C01002020010020540600204D
S1130310C00300208D01000008B50020014B984760
S113032008BDC0468D01000010B582B00C4B1B788F
S1130330002B13D10B4B1B889BB20B4A12899A4298
S11303400CD0081C074B1B88074A1381074B0093EA
S113035000210A23064CA047014B187002B010BDBF
S1130360AC03002058060020C4030020C50300008D
S1130370591B000010B5EFF3108372B6BFF35F8F03
S113038000240D480470002904D00C490888024355
S11303900A8003E00948018891430180002B05D1BC
S11303A00122054B1A70BFF35F8F62B600208321D0
S11303B0034B984710BDC046F700002058060020A4
S11303C02903000010B50021074B197007490B8859
S11303D07C24A3430B8006480389A34303810020A4
S11303E0111C044B984710BDAC0300205806002094
S11303F0C40300202903000008B5064A1378013B12
S1130400DBB213701078C0B2034B98470022034B41
S11304101A7008BD1B01002039380000B603002003
S113042008B5204B1B785AB2002A13DA6022134015
S11304300020202B34D11B4B5B78212B2DD1194B61
S1130440DB88072B2CD1174B174A9A6007229A8115
S1130450013025E0602213400020202B20D1114BD5
S11304605B78202B02D0222B0ED018E00D4BDB88BA
S11304700020072B14D10B4B0C4A1A610A4A9A60CC
S113048007229A8101300BE0064B5B880121194059
S11304900020074B9847012002E0002000E00020E4
S11304A008BDC046B0090020140100202D01000041
S11304B04538000008B5002001214022014B98472F
S11304C008BDC04675030000EFF3108272B6BFF397
S11304D05F8F0021094B1970094B1888094B1B7851
S11304E05B0009495B5A181A002A05D10132034BF3
S11304F01A70BFF35F8F62B67047C046F7000020E2
S1130500B0030020BC030020A403002008B5034B63
S11305109847431E9841C0B208BDC046C9040000B4
S113052030B583B0EFF310835D425D4172B6BFF323
S11305305F8F0022214B1A70214B1C78E4B2214AB0
S11305401278002A07D1204B1A8861001F4BCB5A1E
S113055092B29A4209D20020002D2DD00122174BCD
S11305601A70BFF35F8F62B626E00022164B1A8022
S113057063426341DBB2124A13700122114B1A70B9
S1130580002D04D00D4B1A70BFF35F8F62B60020AC
S11305900F4B9847002802D000200E4B9847A2002A
S11305A0121994010C4A12190C4B009302200121D8
S11305B0A0235B000A4CA04703B030BDF700002025
S11305C0BC03002050060020B0030020A403002038
S11305D00D050000B51E0000D003002075060000C4
S11305E0591B000038B50024154B1C70154B1C70AA
S11305F0154B1C70154B1C70154B00251C805C8022
S1130600144B1C800020144B9847144B1D70144B42
S11306101D70144B1C805C80134B1C800020134BFA
S1130620984700280AD0064A13780133DBB21370C6
S11306301378012B02D101220D4B1A7038BDC0462C
S11306401B010020C0030020540600201C010020D0
S113065020010020B40300208D010000500600207A
S1130660BC030020A4030020B003002021050000E7
S1130670B603002010B582B000281FD1104B1B78A0
S113068058424341DBB200290ED19900CB189B019B
S11306900C49CB180C490091101C01211A1CA023F1
S11306A05B000A4CA04709E089B25B00084A9952F2
S11306B00022084B1A700020074B984702B010BD67
S11306C0BC030020D003002075060000591B000065
S11306D0A4030020500600202105000008B50020D6
S11306E0014B984708BDC0460D050000F0B55746BC
S11306F04E464546E0B4264B9B79093B5A4253414A
S1130700DBB2994600239C46224B98460027224E92
S1130710224CEFF3108172B6BFF35F8F43461F7014
S1130720328892B22378DBB258001D4D455BADB2DE
S1130730002907D101318A46164950460870BFF393
S11307405F8F62B6AA4205D3164B1B78002BE0D10B
S1130750002017E09900CB189B019B1812495B5CA1
S113076065461D43013292B20B4B1A8000200F4B99
S113077098474B46002B04D02B029C4600239946F5
S1130780C7E7281C1CBC90469946A246F0BDC0464B
S113079014010020F7000020B0030020BC03002057
S11307A0A4030020B6030020D0030020210500008C
S11307B008B50020014B984708BDC046ED0600006F
S11307C0EFF3108272B6BFF35F8F0021144B1970E0
S11307D0144B1B78DBB258001349405AA02149003E
S11307E0884210D11149097800290CD1104909789F
S11307F0002908D101200E49087059424B41DBB24F
S113080008490B700020A0235B00181A002A05D1A8
S11308100132034B1A70BFF35F8F62B67047C04654
S1130820F70000201C01002020010020C00300204C
S11308305406002008B5034B9847431E9841C0B2A4
S113084008BDC046C107000008B50020014B984709
S113085008BDC04635080000F0B557464E4645462B
S1130860E0B482B00C1C204B9D79093D6B425D4184
S1130870EDB21E4E1E4B98461E4B9A460020B047C2
S1130880002804D11C4B1B78002BF7D125E0EFF393
S11308901083019372B6BFF35F8F002341460B7040
S11308A053461B78DBB215485F00395A4A1C3A524A
S11308B09800C3189B015B1811495C54019A002AE3
S11308C005D101320A4B1A70BFF35F8F62B6002D57
S11308D002D024120025D1E7012002B01CBC9046AE
S11308E09946A246F0BDC046140100203508000018
S11308F0F70000201C010020B60300202001002086
S11309002401002008B5011C0020014B984708BDB4
S11309105908000010B5114B1B681C68A378E278D5
S113092012021A43A2180378C018904210D24378D6
S1130930042B0FD08B4205D10FE04378042B0BD04E
S11309408B420AD00378C0189042F6D3002004E00A
S1130950002002E0002000E0002010BD5C06002022
S113096008B5034B5B887F201840024B984708BDAD
S1130970B0090020311D000010B5164B1B78002271
S1130980002B24D0144B1B681B681C7984421ED98D
S1130990124A13609A78DC78240214431C19A34287
S11309A014D25A78042A09D19A78824206D1DA7884
S11309B08A4203D1094A1360012208E01A789B187D
S11309C0A342EED3054A1360002200E00022101C6B
S11309D010BDC046680600205C0600206C0600209E
S11309E0F0B5474680B4041C0021124B9847051EFD
S11309F01CD0114B1B685B68A200D3589846DB6877
S1130A009847011C201C0B4B9847051E0ED00B4B1E
S1130A101C680B4E0B4F201C0521B047041E02D04E
S1130A208078B847F7E743465B689847281C04BCBE
S1130A309046F0BD790900005C0600206C06002099
S1130A401509000071180000F8B5051C0F4B9847F4
S1130A50002819D00E4B1C680E4E0F4F201C052188
S1130A60B047041E09D08078E178237962791202B4
S1130A701A43B8470028F1D106E0084B1B685B68AD
S1130A80AD00EB581B689847F8BDC04679090000D3
S1130A906C06002015090000C91800005C0600203F
S1130AA008B5014B984708BDE11D000070B50E4B19
S1130AB01B78002B11D00D4B1B681B681B79002B76
S1130AC00BD000240A4E094D201CB0470134E4B277
S1130AD02B681B681B79A342F6D80022024B1A70BC
S1130AE00132044B1A8070BD680600205C060020A9
S1130AF0E10900006406002038B50D4B1B78002B7B
S1130B0015D00C4B1B681A681279002A0FD00024E8
S1130B10084D5B68A200D3581B69002B00D098478E
S1130B200134E4B22B681A681279A242F1D838BDB4
S1130B30680600205C060020F8B5BD4B00229A81AF
S1130B401A615A611B785AB2002A00DBF6E1B84AEE
S1130B50D2880020002A00D0F4E1F8E11F210B40E4
S1130B607BD1B349497806290BD008296DD00029D7
S1130B7073D1022A00D08EE1AE480231AE4B9847C1
S1130B80E4E1AB4B5B881A0A022A10D0D1B20229E5
S1130B9002D8012A05D048E1032A2AD00F2A1CD002
S1130BA043E1A64B18680178A34B984744E0DBB2B5
S1130BB0A24A1268527C9A4200D86CE19F4A526859
S1130BC0DB0098588378C178090219439A4B9847F7
S1130BD0974B9B6802225A702EE0984B9868002825
S1130BE000D158E18378C17809021943924B9847A0
S1130BF022E0FF221340012B0CD0002B05D0022B46
S1130C0000D048E18E4C0F2106E08E4804218A4B27
S1130C10984711E08C4C05218C4A0023E05C5080FD
S1130C2001330232D8B28842F8D3490002318748EE
S1130C30017089B2804B98477D4BDA889B89934237
S1130C4000D883E17A4B9A8180E1012A00D022E125
S1130C507F480121784B984778E1012B27D17449CB
S1130C6049780A2923D1012A00D014E1784B1B7852
S1130C70002B00D10FE16E4B1C79764B1D682B685D
S1130C801B79A34200D806E1201C0021724B98472F
S1130C90002800D1FFE06B68A400E358DB689847A4
S1130CA06E4B1870181C0121634B98474EE1022BC0
S1130CB000D0F0E05E4B5B780020002B00D0E8E031
S1130CC0022A00D0E7E05A4B1879654B9847654BE8
S1130CD01880181C0221584B984737E11F221340F3
S1130CE062D1534A5278032A00D1CFE0D1B203290A
S1130CF002D8012A0ED057E0052A02D0092A19D0B9
S1130D0052E04B4BDB88002B00D0C4E0564A484BE2
S1130D101A611BE1464BDB88002B00D0BBE0444B3F
S1130D205B88012B00D0B6E0424A138802218B4332
S1130D3013800BE13E4BDB88002B00D0ABE04B4B28
S1130D409847002800D1A6E0394B9A783B4B1B68A2
S1130D505B7C9A4200DD9EE0454B9847344B9B7880
S1130D603B4A1370002B00D1F0E0424A944663449E
S1130D70DB00324A5268D318364A13601B681B7969
S1130D80002B00D1E2E000243B4D161C201C002166
S1130D90A847002800D17EE00134E4B233681B6820
S1130DA01B79A342F2D8D1E0012B18D1204A527802
S1130DB00B2A14D11E4BDB88002B6CD1244B1B78DF
S1130DC0002B68D01A4B1D795C88281C2B4B984744
S1130DD0002860D0E1B2281C274B984759E0022B29
S1130DE059D1134B5B78012B02D0032B0DD04FE06C
S1130DF00F4BDB88002B4ED10D4B5B88002B4AD167
S1130E000B4B18791E4B984743E0094BDB88002BAA
S1130E1041D1074B5B88002B3DD1054C2079194B00
S1130E2098472079184B984733E0002031E0C046BA
S1130E30B009002064060020511D00008400002039
S1130E40280000206000002038000020400000201E
S1130E50680600205C060020790900006006002076
S1130E60D11900006206002061090000411D000044
S1130E70AD0A0000FFFFFF1F490A0000E10900005E
S1130E80151B000011180000E5190000002000E007
S1130E90002000285BD12E4B1B781F221340012B0E
S1130EA020D12C4B1B78002B1CD0294B1C792A4BAE
S1130EB01D682B681B79A34214D9201C0021274BE1
S1130EC0984700280ED06B68A200D558EB68984765
S1130ED0011C201C214B9847002803D0AB6898477D
S1130EE0002834D11A4B1B781F2213400020022BF8
S1130EF02DD1184B1B78002B29D0174B1B681A686F
S1130F001279002A18D00024144E134F5B68A200F3
S1130F10D558EB689847011C201CB047002816D010
S1130F20AB689847002812D10134E4B23B681A68D0
S1130F301279A242EAD80AE0002008E060221A42AC
S1130F40A9D1CBE660211942A5D107E60120F8BD5D
S1130F50B0090020680600205C0600207909000022
S1130F6010B50C4B1C698621C9058A69986802432F
S1130F709A60094B8B61002C05D020686368984700
S1130F80A468002CF9D1034BD9689A688A439A6003
S1130F9010BDC04664000020FF0FFF0F06490B6A16
S1130FA0012213430B628623DB051A70191C0B788C
S1130FB01342FCD17047C04600040040064A117831
S1130FC002230B4313700221012053681942FCD100
S1130FD053681842F9D170470024004000B583B02B
S1130FE0184A5369802189000B43536101A90023E6
S1130FF00B700320144B98470320144B9847144A52
S1131000117801230B431370022101205368194204
S1131010FCD15368184209D0F8E704C38B42FCD1D1
S113102008220C4B1A600C4B984709E0084A1378C5
S113103010218B431370094B191C40310022ECE73B
S113104003B000BD000400405D350000F53400002D
S11310500024004000E100E0BD0F0000380700203C
S1131060F8B55F4656464D464446F0B4234B1B68DC
S11310709A461E685B8E5246128E1A409046B38979
S1131080728913401AB2002A08DA43469B0502D536
S11310905346DB6A98471A4BB38128E0FF271F4069
S11310A01AD0002401239946FE339B46231C4D4647
S11310B0A5402F4209D0424622414946114204D05C
S11310C002339B0052469B5898475B461D40B581AE
S11310D00134082CEAD10AE0DB0508D54346DB05D8
S11310E002D553469B6A984780235B00B3813CBC7E
S11310F090469946A246AB46F8BDC0467807002004
S11311000080FFFF38B58000144BC5582B689C7ACB
S11311102B7E1C406B7E1C40E30705D5281CAB6866
S1131120984701232A689372A30705D5281CEB6806
S1131130984702232A689372E30605D5281C2B6975
S1131140984710232A689372A30605D5281C6B6957
S113115098472B6820229A7238BDC0467C0700202D
S113116008B50020014B984708BDC0460511000092
S113117008B50120014B984708BDC0460511000081
S113118008B50220014B984708BDC0460511000070
S113119010B582B0041C01A823490422234B9847AC
S11311A0234B1B78A3423DD0002C1AD001AB1A5D0F
S11311B0204B9B5CFF2B00D1FEE7EFF3108372B64C
S11311C0BFF35F8F00201C4908701A48815C01310D
S11311D08154002B05D10122174B1A70BFF35F8F86
S11311E062B6134B1B78002B1AD001AAD25C114BA8
S11311F09B5C002B00D1FEE7EFF3108372B6BFF3C4
S11312005F8F00200C4908700A48815C01398154C1
S1131210002B05D10122084B1A70BFF35F8F62B611
S1131220034B1C7002B010BD143C0000F13B0000E5
S1131230EE06002030070020F70000200F230340B3
S11312405B00C00918180238830018188000014B8D
S11312501818704774060020F0B557464E464546A8
S1131260E0B489468E7973B2002B51DA301C5D4BA1
S11312709847041C0F2333409846038A9A464B46EA
S11312805F88C3689C466744C7608568AF4224D0C2
S1131290ED1BADB2544B9D4206D91D1C181C514682
S11312A0524B98476D1AADB2A37C00229B0706D51A
S11312B0281C51464E4B984789B24A424A41510034
S11312C0A37C022293431943A1746268D21949484A
S11312D041462B1C484CA0477EE0837C9B070BD5E2
S11312E0837C0222934383744268D2194148414665
S11312F00023414CA0476FE0837C01229343837415
S11313000368002B68D00020391C321C984763E026
S1131310301C344B9847041C0F273740BA46038AC5
S113132098464B461F88837C5B0711D54368C26887
S1131330944663441D1C806841462D4B98470A1C03
S11313405346591E89012D4BC918281C2C4B98470C
S1131350E368FD18E560A3689D4201D9E36030E0CD
S11313604A469288BA422CD19D422AD05B1B9EB237
S11313701D4B9E4207D91E1C181C41461B4B984707
S1131380731A9BB205E0301C4146194B9847731AF7
S11313909BB298450ED9A27C04231343A3745346ED
S11313A05A1E9201154BD218124851464346154C09
S11313B0A04711E0626852190E485146114CA047EB
S11313C00AE0A37C01229343A3742368002B03D077
S11313D0E1680020321C98471CBC90469946A246FE
S11313E0F0BDC0463D120000FF1F00004D3B000051
S11313F06D39000048080020C92400008807002037
S1131400F13B00001925000010B50522054B1A70A8
S1131410054C201C8021054B9847201C0021044BBF
S1131420984710BDEF06002048080020192400004A
S11314304124000070B50E1C0D4C201C06210D4DDE
S1131440A847201C0421A847201C02210A4B9847C6
S113145002200A4B98473368002B04D0084B984766
S11314603368002B01D1074B9847074B984770BD51
S1131470480800202D1F00000D1F000091110000DE
S11314801D380000113800000538000038B5144B31
S11314901B8B9B0607D41249D0221201CB68134040
S11314A09342FBD105E00E4980225200CB681342DF
S11314B0FCD00C4C201C02210B4B9847201C04210F
S11314C00A4DA847201C0621094A0A4B9847201CAC
S11314D00621A8470320084B9847084B984738BD76
S11314E0000C0040480800202D1F00000D1F0000C4
S11314F035140000ED1E000091110000D9370000E2
S113150030B583B0041C1E4B984780232268937225
S113151001AD281C1B4B984703236B70201C291C0E
S1131520194B9847201C1949194B9847201C002136
S11315300222184B184DA847201C00210022174BEB
S1131540A847201C00210122154BA847201C00217C
S11315500222144DA847201C00210022A847201C69
S113156000210122A847226811890F4B0B408021DA
S1131570C9000B43138100220C4B1A7003B030BD19
S1131580AD0A00005121000061210000C8090020BB
S113159065250000E5160000491F0000151A00002B
S11315A0ED150000991F0000FFF3FFFFEF06002078
S11315B010B50322074B1A70074C201C0749084B2F
S11315C09847084B9A68201C00210023064CA0472A
S11315D010BDC046EF06002048080020C8090020BE
S11315E065250000B0090020C924000008B58979E8
S11315F04BB2002B0CDA0D4B1B78012B02D10C4B98
S1131600984712E0042B10D10A480B4B98470CE082
S1131610064B1B78022B03D10422044B1A7004E0FE
S1131620032B02D10348044B984708BDEF06002062
S1131630B1150000480800201924000070B5204BA3
S11316401A88204B9C89A41AA4B2002C20D11E49CC
S11316500B88D3189BB20B801A4AD2889A4203D0C3
S11316601A4B1B78002B07D00422194B1A70194807
S113167019491A4B984722E0124B5B69002B0ED094
S1131680984700280BD000220D4B1A800D4B9C89E3
S11316903F2C04D900220D4B1A70402402E0012291
S11316A00A4B1A70064D2B88064A9268D2180948CC
S11316B00021231C0A4EB0472B88E4182C8070BDEF
S11316C0EC060020B00900207206002070060020FD
S11316D0EF06002048080020C80900206525000006
S11316E0C924000010B50C1C2C4B1B78002B07D010
S11316F02B4B1B69002B00D098470022274B1A70F4
S11317002388082B02D0274B984745E0244A264BD0
S11317101978117059785170D9780902987841185C
S1131720518059790902187941189180D9790902AF
S11317309B795B18D3801D4B9847002802D1194B25
S1131740984729E0164B1B787F2B10D90023184AA1
S11317501380184A13800222104B1A701648002175
S1131760114A4023154CA047154B984714E00C4BE5
S1131770DB88002B02D1134B98470DE000230C4A61
S113178013800C4A13800122044B1A700A4800216A
S1131790054A4023094CA04710BDC046EF0600206F
S11317A0B009002009140000C8090020390B00000A
S11317B072060020EC0600204808002019250000CD
S11317C03D160000B115000008B5024B9847024BC6
S11317D0984708BDF90A0000E537000010B5074C2A
S11317E0201C0421064B9847201C0221054B9847D6
S11317F00120054B9847054B984710BD4808002029
S11318002D1F00000D1F000091110000CD370000B6
S113181010B5041C0A48211C0A4B9847201C0A4B8B
S11318209847837CDB070AD5837C01229343837426
S11318300368002B03D0C1680120221C984710BD07
S113184048080020B52300003D1200000020704726
S1131850024B1B68188A8004400D7047480800201A
S1131860024B1B68188A80B27047C04648080020A3
S113187070B582B0041C01AD281C0D4B9847201C88
S11318800C4B98472C700023EB700B4E301C291C1A
S11318900A4B98470F212140301C0022084B9847DF
S11318A0301C211C0022074B984702B070BDC04673
S11318B05121000011180000480800206121000097
S11318C0711F000075200000F0B583B0061C0C1CCD
S11318D0151C01AF381C364B98473E70082D03D8B1
S11318E0002201AB5A702EE0102D03D8012201AB67
S11318F05A7028E0202D03D8022201AB5A7022E04E
S1131900402D03D8032201AB5A701CE0802D03D86C
S1131910042201AB5A7016E080235B009D4203D879
S1131920052201AB5A700EE080239B009D4203D830
S1131930062201AB5A7006E000231E4A954233D8B2
S1131940072201AB5A70301C1B4B984705820321B8
S11319502140012903D1022201ABDA700BE00229F4
S113196003D1032201ABDA7005E0002303291BD164
S1131970042201ABDA70114801A9114B98470023E6
S1131980002811D10D4C0F213140201C00220D4B99
S11319900D4DA847201C311C00220C4DA847201CCB
S11319A0311C0122A8470123181C03B0F0BDC04616
S11319B051210000FF0300003D12000048080020F0
S11319C06121000059120000491F0000991F000006
S11319D008B5011C0148024B984708BD480800207F
S11319E0ED23000010B50F2303400022032B08D879
S11319F0041C0548211C054B9847201C044B9847A0
S1131A000122101C10BDC046480800201924000003
S1131A101118000038B5344B1B78012B55D10D88B3
S1131A20324B9B89324A14886219934201DA1D1B96
S1131A30ADB22E4B986800192E492A1C2E4B98479C
S1131A402C19A4B22A4B1C80402D06D1274BDA88CE
S1131A502A4B1B881B199A4210DC244B9C815B691E
S1131A60002B08D09847002805D105221E4B1A7078
S1131A70234B984736E0234B984733E01B4B9B8915
S1131A80A3421BD1194B5B69002B06D10522164BCF
S1131A901A7000201A4B984724E09847002805D173
S1131AA00522114B1A70164B98471BE01349104A34
S1131AB010880B88C3180B80002313801248002160
S1131AC00C4A4023114CA0470CE0022B02D1104BCE
S1131AD0984707E0054B1B69002B00D0984700226C
S1131AE0014B1A7038BDC046EF060020B009002033
S1131AF0EC060020C8090020F13B0000720600201B
S1131B00E5190000B115000048080020192500005F
S1131B103D16000038B5011C0F2303400020032BA1
S1131B2013D80C1C081C094B9847051C0848211C99
S1131B30084B9847AB7C0120DB0706D5AB7C012220
S1131B409343AB742B689847012038BD3D120000C5
S1131B504808002041240000F0B585B0051C03911D
S1131B60029201930F2303401E1C0024032B00D96F
S1131B70C7E0654B9847041E00D0BDE0281C634BAA
S1131B809847071CEFF310835842584172B6BFF3CD
S1131B905F8F00215E4A1170BA7CD30709D50028F3
S1131BA000D1AEE001225A4B1A70BFF35F8F62B6C8
S1131BB0A7E0BA7C01231343BB74002805D001229B
S1131BC0534B1A70BFF35F8F62B6029B7B60019B1D
S1131BD0BB600023FB600A9B3B600123039A134014
S1131BE05A00BB7C02218B43134304229343BB74EE
S1131BF06BB2002B40DA019B002B1DD06B469C88F6
S1131C00444B9C4206D9398A1C1C181C424B9847E9
S1131C10631A9CB2BA7C0023920706D5398A201C29
S1131C203E4B984789B24B424B415B00BA7C022140
S1131C308A431343BB7415E0BB7C9B0705D5BB7C6F
S1131C4002229343BB7400240CE0BB7C0122934327
S1131C50BB740A9B002B51D0002000212A1C9847FA
S1131C6001244EE02E48311C029A231C2D4CA0471F
S1131C7044424441E4B244E0019B002B2FD06B4624
S1131C809C88244B9C4207D9398A1C1C181C224B63
S1131C909847631A9CB205E0398A201C1F4B984769
S1131CA0631A9CB23B8A9C420FD2B97C04220A4339
S1131CB0BA74721E92011C4952181948311C1B4CEB
S1131CC0A04744424441E4B21BE01548311C029A47
S1131CD0231C164CA04744424441E4B211E0BB7CAF
S1131CE001229343BB740A9B002B09D000200021DE
S1131CF02A1C9847012404E0002402E0012400E0A7
S1131D000124201C05B0F0BDD11900003D120000D3
S1131D10F7000020FF1F00004D3B00006D3900005C
S1131D2048080020C9240000880700201925000065
S1131D30024B1A68802318439072704748080020A9
S1131D40024B1B689B7A7F2018407047480800208C
S1131D50014B986099817047B009002070B5032049
S1131D60164B9847164C2268138901218B43138123
S1131D70201C0331134A144EB047201C0021134A7F
S1131D80B047201C0121124AB047201C0221114AED
S1131D90B047201C0421104DA847201C0021A8474F
S1131DA0201C0121A847201C0221A847201C062131
S1131DB00A4AB047201C0621A84770BD91110000B3
S1131DC048080020DD170000ED1E0000C9170000C0
S1131DD0011500008D1400000D1F000035140000D3
S1131DE070B582B0EFF3108472B6BFF35F8F002238
S1131DF0194B1A7001AD281C184B98470323AB707C
S1131E00174E301C8221C9052A1C164B9847301CDA
S1131E10154B9847154B1B8B9B0607D41349D022AF
S1131E201201CB6813409342FBD105E00F49802295
S1131E305200CB681342FCD001200D4B98470D4B48
S1131E409847002C05D10122034B1A70BFF35F8F12
S1131E5062B602B070BDC046F7000020492B0000F6
S1131E6048080020592B000095250000000C004074
S1131E70911100005D1D000008B5094B9847094BFE
S1131E80984700280AD0084B9847002802D1074BEE
S1131E90984703E0064B9847014B984708BDC04656
S1131EA005090000DD06000049080000B504000033
S1131EB0B107000008B5034B9847C0B2024B9847DE
S1131EC008BDC046B1070000791E00007047C04637
S1131ED07047C0467047C0467047C0467047C0460A
S1131EE07047C0467047C0467047C0460B1C2E332F
S1131EF09B001A504900AA225200034BC95A835A24
S1131F000B438352002070472C3C00004900064BD1
S1131F10CB5A02689383AB214900425A1A43425276
S1131F2002681383002070472C3C00004900054BD5
S1131F30CA5AAB214900435A9343435203689A82D5
S1131F40002070472C3C000010B58C00A4183434D9
S1131F50A4000419636041185931FF310878034B18
S1131F609B5C03430B70002010BDC0463C3C00004A
S1131F7010B58B009B1834339B00C31800245C609D
S1131F8041185931FF31034B9A5C0B7893430B7022
S1131F90002010BD3C3C000070B50F230B40C4185A
S1131FA06134FF342678324DAD5C35432570002A08
S1131FB01FD1002B08D15C010568AC466444093488
S1131FC0FF34032565703DE04CB2002C08DA5C0157
S1131FD00568AC4664440934FF340225657031E079
S1131FE05C010568AC4664440934FF34012565701E
S1131FF028E0012A1CD1002B07D102685B01D31809
S11320000933FF330C225A7030E049B2002907DA51
S113201002685B01D3180933FF3308225A7025E0A4
S113202002685B01D3180933FF3304225A701DE0A0
S1132030022A07D102685B01D3180933FF33102247
S11320405A7013E0032A11D149B2002907DA026851
S11320505B01D3180933FF3340225A7006E002684B
S11320605B01D3180933FF3320225A70002070BD5E
S11320703C3C000070B50F230B40C4186134FF349E
S1132080324DAE5C2578B5432570002A1FD1002B54
S113209008D15C010568AC4664440934FF34032567
S11320A025703DE04CB2002C08DA5C010568AC46B2
S11320B064440934FF340225257031E05C0105686D
S11320C0AC4664440934FF340125257028E0012A14
S11320D01CD1002B07D102685B01D3180933FF33ED
S11320E00C221A7030E049B2002907DA02685B0159
S11320F0D3180933FF3308221A7025E002685B0104
S1132100D3180933FF3304221A701DE0022A07D1C1
S113211002685B01D3180933FF3310221A7013E0ED
S1132120032A11D149B2002907DA02685B01D318E6
S11321300933FF3340221A7006E002685B01D318AA
S11321400933FF3320221A70002070BD3C3C00008C
S113215000230370437083700133C3707047C0461B
S1132160F0B50A780F231340D409CA78042A00D999
S1132170F0E092008C4EB2589746026808335B0137
S11321800021995400220CE15C01026894466444E5
S113219080225200A55CE43A6D0700D001E1E432EC
S11321A0A65CE43A70252E4200D0FAE05F3DE432AA
S11321B0A5541A1C083252010468A4182F356571FD
S11321C000688218802010718A78002A0BD05A0186
S11321D076488218546880252D062C435460506933
S11321E0284350610AE05A01704882185068400040
S11321F04008506050694000400850610722487808
S11322005B016A4CE318104004075868684D284085
S11322102043586049780A4011075A692A400A4302
S11322205A610022BDE0002C18D05D01026894467A
S1132230654480225200AF5CE43A7026374200D0F5
S1132240AFE09036AF5D04323A43AA5500681A1CD9
S1132250083252018218802010717BE05D0102680F
S11322609446654480225200AE5CE43A760700D07E
S113227097E080267600AF5D1A3A3A43AA55006883
S11322801A1C0832520182184020507162E0002C5E
S113229017D05D0102689446654480225200AF5C09
S11322A0E43A702637427CD19036AF5D14323A431B
S11322B0AA5500681A1C0832520182188020107135
S11322C048E05D0102689446654480225200AE5C99
S11322D0E43A760765D180267600AF5D193A3A4331
S11322E0AA5500681A1C0832520182184020507105
S11322F030E0002C17D05D010268944665448022CA
S11323005200AF5CE43A702637424AD19036AF5D52
S113231024323A43AA5500681A1C08325201821822
S11323208020107116E05D010268944665448022A5
S11323305200AE5CE43A760733D180267600AF5D76
S1132340183A3A43AA5500681A1C083252018218F6
S11323504020507148785A0012191201134DAA18DE
S11323600725284005075668114830402843506027
S11323708A78002A0BD05B001A1912010B4CA218A0
S11323805368802109060B435360002209E05B0077
S11323901B191B01054AD3185A68520052085A6087
S11323A00022101CF0BDC046183C0000080A0020A2
S11323B0FFFFFF8F0F230B4049B200290ADA0833CD
S11323C05B010268D218802111710268D3180222BD
S11323D0DA7109E008335B010268D21840215171B7
S11323E00268D3180122DA717047C0460F230B40EC
S11323F049B2002907DA026808335B01D3189879D7
S11324008006C00F06E0026808335B01D318987990
S1132410C006C00F7047C0460F230B4049B20029C5
S113242006DA026808335B01D31820225A7105E0EA
S1132430026808335B01D31810225A717047C046F2
S113244030B50F230B4049B200291EDA5901026846
S1132450521883246400145DA40634D520258224F4
S1132460640015550268944661440822FF328A5C70
S1132470520628D5C43C0822FF328C540268083323
S11324805B01D31802221A711DE059010268521827
S113249083246400145DE40615D5102582246400A9
S11324A015550268944661440822FF328A5C9206FC
S11324B009D5E43C0822FF328C54026808335B01DE
S11324C0D31801221A7130BD30B50C1C08346401D4
S11324D00568645D6406640F1C25002C16D04C014D
S11324E00B4D2D192C1C2A616D690A4A2A40626120
S11324F09B049A0C63699B0B9B03134363610368FE
S113250008314901591880234B710025281C30BD1E
S1132510080A0020FF3F00F030B50C1C08346401A9
S11325200568655D1C246D0715D00C4D4C01625186
S11325302C199B041A096568094B2B4013436360EB
S113254063689B0B9B036360036808314901591856
S113255040230B710024201C30BDC046080A002013
S1132560FF3F00F0094B19605968094A0A4080216D
S113257089020A435A605A68920B92035A600268AD
S1132580402182235B00D15400207047080A0020B8
S1132590FF3F00F00268117802230B4313700268B6
S11325A09378022BFCD07047F0B55F4656464D46F3
S11325B04446F0B483B0C84B1F683D682B78DB09F0
S11325C000D154E1288C80B2C44B9847041E1F2CC0
S11325D000D9D2E0031C08335B01ED18ED79EDB2AC
S11325E0AB0750D0BE4A0123834011689943116060
S11325F0031C08335B013A68944663440322DA718E
S11326003B18A8339B79DB073DD5B64B18703A6865
S1132610031C08335B019B5C03221340012B10D184
S11326204201B14B9B185A689204920CAD494A80FE
S11326305A681201920C8A805A68920B92035A606B
S113264019E04301A84AD3185A681201920CA5480C
S1132650428059688904890C81805868A3490140E3
S11326605960002A07D163019F4AD3185B689B0411
S11326709B0C9C4A5380984B1868A31C1B01C318DD
S11326805B68984998476B070ED5954A0123A34088
S1132690116899431160904B1B681A68231C083316
S11326A05B01D3180422DA712B0721D58C4A01234C
S11326B0A340116899431160874B1868231C0833A1
S11326C05B010268944663440822DA710319A83353
S11326D09B799B070CD583490C706301824AD318FC
S11326E0DA891F2313404B702301C3189B6A984750
S11326F0EB0622D57A4A0123A3401168994311605D
S1132700754B1868231C08335B01026894466344C4
S11327101022DA710319A8339B795B070DD5714A2E
S1132720147063017049CB185B681B019B0C5380C8
S11327302301C318DB6A00219847AB0600D4F8E1F3
S1132740674A0123A340116899431160624B1868DA
S1132750231C08335B010268944663442022DA7127
S11327600319A8339B791B0700D4E2E15D490C707F
S113277024010419236B9847DBE1AC8BA4B26307F3
S113278008D50423AB83A133FB5CDB0702D57B684C
S1132790381C984723070DD50022514B1A604E4B25
S11327A018680823026893839D33C35C9B0701D593
S11327B08368984763060AD5474B18684023026824
S11327C093836533C35CDB0601D543699847A3064D
S11327D00AD5414B18682023026893838533C35C70
S11327E01B0701D503699847E3060AD53A4B1868D5
S11327F01023026893839533C35C5B0701D5C368D8
S1132800984723060DD50022354B1A60324B1868C1
S11328108023026893832533C35C9B0601D58369B7
S11328209847E3050ED500222D4B1A602A4B1868F1
S113283080235B00026893835B3BC35C5B0601D52A
S1132840C3699847A30500D473E10022244B1A609E
S1132850214B186880239B00026893835C3BFF3BF9
S1132860C35C7F2B00D864E1036A984761E12E8C36
S1132870B6B2002E40D1AE8BB6B2AB235B00FD5A8C
S11328803540023BFB5A1D400024194F124B994618
S113289098466300DB5B1E4203D04A461268126806
S11328A093831D4213D0062C07D10F4B1B891A09A1
S11328B080235B0013400F4A1360231C2E339B00BC
S11328C0424612689B58424610680A4998470134A8
S11328D0072CDED12DE1C04608070020653B00002F
S11328E0FC060020F4060020080A0020FF3F00F048
S11328F02C3C0000F00600203C1C5934FF3400231B
S1132900012294465F329146503A9246043A9346E5
S1132910B8462F1CD8B20193321C1A4161461142A9
S113292000D101E11A1C08325201BA18D279D2B28C
S1132930217A2578294011404D4615422AD03D1C64
S113294047465B01ED180823FF33EB5C5B0609D5B2
S113295040220823FF33EA54883BFF3B0343784A71
S113296093710AE00823FF33EB5C9B0605D5202214
S11329700823FF33EA54724B987160230B4200D151
S1132980D7E0019B1B01FB18DC335B68381C6C49E6
S11329909847CEE0554615421FD03D1C4746019A44
S11329A0131C08335B01ED181023EB71BB18613362
S11329B0FF331B78DB0600D4BBE0101C5301614AD3
S11329C0D3185B689B049B0C5D490B800301FB18C7
S11329D0D8335B6840469847ABE05D4615425FD00C
S11329E03D1C47468046019B5B01ED180823FF33DD
S11329F0EB5C1B0723D508220823FF33EA54019B11
S1132A005B01504AD31818339B789B0707D5019B69
S1132A105A014C4B9B189A7E022082439A7680235B
S1132A205B4242461343464A9371019B08335B0160
S1132A303A6894466344DB799B0725D579E00823FB
S1132A40FF33EB5C5B071FD504220823FF33EA54F2
S1132A50019B5B013B4AD31808339B789B0707D53E
S1132A60019B5A01374B9B189A7A022082439A722F
S1132A70334B42469A71019B08335B013A68944692
S1132A806344DB79DB0754D40C230B4251D0019B04
S1132A901B01FB18D4335B68381C2949984748E06C
S1132AA00325154240D03D1C47468046019B5B01EF
S1132AB0ED180823FF33EB5C9B0712D50222082391
S1132AC0FF33EA541E4A883BFF3B03439371019B47
S1132AD05B011C48C31810335B689B049B0C538038
S1132AE017E00823FF33EB5CDB0712D50122082330
S1132AF0FF33EA54124843468371019B5A01114B38
S1132B009B185A689204920C02805B681B019B0C10
S1132B1083808B070DD0019B0D331B01FB185B6871
S1132B20381C0749984704E001330134082B00D0CE
S1132B30F0E603B03CBC90469946A246AB46F0BDD5
S1132B4000070020080A00200023037001334370AB
S1132B5003228270C3707047F0B54F464646C0B436
S1132B6083B0041C0D1C161C0023654A1360654ABF
S1132B70106021606448826901210A43826101AFC7
S1132B807B70B970FB70063399463B701820391C72
S1132B905E4B984698474B463B701920391CC047FA
S1132BA0B3786A46137004206946594B9847042049
S1132BB0584B98472A78012313432B700122AB7892
S1132BC01A42FCD1544B1B689B03DB0E1F2B00D114
S1132BD01A3B9A01298D514B0B4013432B854E4BC5
S1132BE01B685B02DB0E1F2B00D1023B2A8D1F21C9
S1132BF08A4313432B85484B1B689B015B0F072BB0
S1132C0000D1043B1A03298D454B0B4013432B85FC
S1132C103378DA012B787F210B4013432B707378C0
S1132C20012213409A002B787B398B4313432B707A
S1132C303C4B6B62F378012B05D122681389083170
S1132C408B43138108E0002B06D121680B890C22E9
S1132C509343042213430B81324800218022520003
S1132C60314B9847221D231C2433002102C29A426F
S1132C70FCD1211CA43100221A605A609A60DA60E7
S1132C8010338B42F8D10023A422A3540132A3545D
S1132C90231CA633211CAE3100221A701A72013390
S1132CA08B42FAD1221CB832231CD433002102C235
S1132CB09A42FCD1211C5531FF3100221A605A601E
S1132CC09A60DA6010338B42F8D10023AA225200B2
S1132CD0A3520232A352231C5933FF336134FF340D
S1132CE000221A701A720133A342FAD140220F4B08
S1132CF01A60002003B00CBC90469946F0BDC04653
S1132D00FC0600200807002000040040593600009B
S1132D105D350000F53400001C6080003FF8FFFFC3
S1132D20FF8FFFFF080A0020033C000000E100E0E1
S1132D3070B50022154B1A7000231F25144E134C36
S1132D401F2B19D90FE0002100E012494A619B00B2
S1132D509B59002B00D0984723780133DBB22370B2
S1132D600F2BEDD911E0291C194001228A400021C2
S1132D7049691142E7D1EFE7291C194001228A4031
S1132D80044949691142E0D1E6E770BD080B00200F
S1132D9038070020002400407047C0460C4B1B68D5
S1132DA0002B10D1EFF31083002B09D172B6BFF3BF
S1132DB05F8F0022074B1A700132074B1A7002E032
S1132DC00022054B1A70024A1368013313607047DE
S1132DD00C070020F700002010070020084B1A6899
S1132DE0013A1A601B68002B09D1064B1B78002B93
S1132DF005D00122044B1A70BFF35F8F62B670478F
S1132E000C07002010070020F700002008B5082850
S1132E1003D880001C4B1B589F46002032E01B4BFC
S1132E2018692FE01A4B187D0007800F0130194BE9
S1132E30584327E0154B586924E0144B1B680220C3
S1132E4018401FD0124980225200CB681342FCD094
S1132E500E4B1B685B0714D500200F4B98470B4B98
S1132E609B681B041B0C58430CE02823084AD35CC2
S1132E7000209B0706D5054BD86803E0802000029C
S1132E8000E0064808BDC046403C0000140700208E
S1132E90000C004000093D0081350000006CDC029C
S1132EA030B50C4C237D857841780078032210409E
S1132EB080000932934303430B3A114089013F32A6
S1132EC093430B431A1CE9017F2313400B432375DF
S1132ED030BDC046000C0040F0B55F4656464D4636
S1132EE04446F0B4254E73699C46457803785A42AB
S1132EF05A41904683789A46C378477A027A934631
S1132F00847A42681E4842610120424692009046FB
S1132F1004229146624649468A43944642466146A3
S1132F200A4394460340DB00082290466246414629
S1132F308A431343514601400901102293430B4332
S1132F405A460240920140218B4313430740FF013C
S1132F50802293433B43793A15402D02094F3B406D
S1132F602B4304402003084C1C40044374613CBCC4
S1132F7090469946A246AB46F0BDC04600100040BC
S1132F8014070020FFF8FFFFFFEFFFFF10B5837A5F
S1132F909B061A0C83899B059B0D13431A4C636093
S1132FA0C18883881943437A027A13430B434278D6
S1132FB0D201134382789201134323600378042BD4
S1132FC00FD1837B9B06428A1343191C038A1B047B
S1132FD00E4A13400B43A360216804230B43236070
S1132FE011E0202B0FD1837B9B06428A1343191CCB
S1132FF0038A1B04054A13400B43034A9360136876
S113300003490B43136010BD140700200000FF03A5
S113301024040000082803D88000294B1B589F462D
S113302017204BE0274A117D02230B431375002020
S113303044E0254A916902230B43936100203DE05B
S1133040204A118A02230B431382002036E01E4AD1
S1133050516902230B43536100202FE01B490B6885
S1133060022213430B60174B1A83191CFE32CB68E0
S11330701342FCD0154A9168124B19625268DA6106
S113308000221A83191C0132FF32CB681342FCD090
S11330900E4B1B689BB20B4A138300200EE00949B8
S11330A02822885C022303438B54081C3821263AC7
S11330B0435C1342FCD1002000E000207047C0466E
S11330C0643C0000000C0040001000401407002085
S11330D0082832D880001A4B1B589F46194A137D82
S11330E002218B431375002028E0174A93690221BB
S11330F08B439361002021E0124A138A02218B43FF
S1133100138200201AE0104A536902218B43536151
S1133110002013E00D4B1A6802218A431A601B68D1
S11331209BB2084A1383002008E0064928228B5CDE
S1133130022083438B54002000E017207047C046D0
S1133140883C0000000C00400010004014070020E0
S1133150F0B5474680B48CB080225200744B9A601C
S1133160FD3A744B9A6074494B681B3293431A3A84
S113317013434B608023DB059B78022B09D080230B
S1133180DB05033A9A7101329A701A1C9379002B69
S1133190FCD009A880231B02436000228270012313
S11331A0C370827203700421417042720372634BD4
S11331B098470520624B984762490122CB681A421E
S11331C0FCD001A901234B6000244C700C724C729A
S11331D003250D7000205C4B984706205B4B9847F5
S11331E06B465C701D709C706846594B984706206E
S11331F0534B98474E491022CB681A42FCD001A980
S113320001234B6000244C7005330B700C724C721C
S113321000204D4B9847464A117D80230B4313757C
S113322004AB00229C80DC801A725A729A703F218F
S113323099813B3919705A70464B1B689B0E3F2B82
S113324000D1203B04A88372B723DB00438203230D
S113325083731C330382404B9847404B984701AC1F
S1133260012666600025657025726572052323704A
S11332700120211C344B984698470120384FB84709
S11332806660657006232370257265720220211C16
S1133290C0470220B84766606570257265720723CF
S11332A023700320211CC0470320B8472670002048
S11332B0211C2C4B984700202B4B98470720204B70
S11332C098471B49D0221201CB6813409342FBD18B
S11332D0264C002323716371A37101A901224A6062
S11332E04B704B7207330B700A720020164B9847D1
S11332F000201B4B984700201D4B98472379013B26
S1133300D8401C4B98420ED88023DB059B78002BB9
S113331009D08023DB0501229A7100229A701A1CBD
S11333209379002BFCD00CB004BC9046F0BDC04691
S1133330000C00400014004000400041D92E000061
S113334015300000001000409D330000D130000013
S1133350A12E0000206080008D2F00007933000032
S1133360493400005D350000F534000000040040DD
S113337089340000001BB700064A516940230B43FF
S113338053610122044B1A70191C0B781342FCD1AF
S11333907047C046000400400018004070B5041C8B
S11333A00D784B78002B02D08023DB001D434B7A31
S11333B0002B02D080231B011D434A68012A17D920
S11333C0531E1A420FD1022A06D9022300200130CB
S11333D05B009A42FBD800E0002080235B011D4380
S11333E00004054304E0120480239B001A431543A0
S11333F00B7A002B02D080239B011D430426A64098
S11334000D490E4A4B6813401E42FBD10C4B9847A2
S1133410A400094B9C466444206A80235B00184046
S1133420284320626146054A4B6813401E42FBD183
S1133430044B984770BDC04600180040FC070000CC
S11334409D2D0000DD2D000010B5041C04228240D7
S113345009480A4943680B401A42FBD1084B984774
S1133460A400054B9C466444236A80225200134303
S11334702362044B984710BD00180040FC0700006D
S11334809D2D0000DD2D0000F8B5041C04228240AF
S11334901248134943680B401A42FBD1114B984719
S11334A00E4F0834A400E3590F2018400E4B9847E0
S11334B0061CE559ED04ED0FE459240C0B4B984719
S11334C0002D07D1012C07D9301C211C084B98472B
S11334D0061C01E00134E640301CF8BD0018004031
S11334E0FC0700009D2D00000D2E0000DD2D0000C6
S11334F06138000010B5041C084B9847A400084B21
S1133500E0188022815840230B4383508021403AA5
S113351043581A42FCD0034B984710BD9D2D000020
S113352000180040DD2D000010B5041C084B98471E
S1133530A400084BE0188022835840218B43835019
S11335404031403A43581A42FCD1034B984710BDCE
S11335509D2D000000180040DD2D000038B5041C2E
S11335600D1C054B98472B780F2213402034A400E0
S1133570024AA35038BDC046293500000018004057
S113358010B5041C064B98472034A400054BE3589F
S11335900F241C40044B9847201C044B984710BD33
S11335A09D2D000000180040DD2D0000893400002E
S11335B030B5D378002B1ED11478802C04D0240687
S11335C080235B021C4300E0002453780225AB43B4
S11335D00AD19378002B03D180239B021C4302E081
S11335E0C023DB021C4341605378013B012B12D8FA
S11335F0184B1C400FE041600B041B0CA024E40595
S1133600234383620B0CD024240623438362D378A0
S1133610002B18D01CE00B041B0CA025ED052B433C
S1133620234383620B0CD0252D062B432343836253
S1133630D378002B0CD1630305D59378012B01D1EA
S1133640816100E041615378013B012B00D8816026
S113365030BDC046FFFFFBFF08B5031C0A1CC109AF
S11336600020002904D15809C00105498C46604452
S11336701F210B401E399940024B984708BDC04694
S113368000280040B13500007047C04608B5054B1E
S11336909847054B9847054B9847054B9847054B6A
S11336A0984708BD51310000992D00009D0F00007E
S11336B0DD0F000089360000FEE7C04610B51D4B43
S11336C01D4A9A4203D01D4B1A4A9A4204D31C4BFA
S11336D01C4A9A4210D31EE01B4A184B03339B1A10
S11336E09B0801339B000022124813498C588450D4
S11336F004329A42FAD1EAE7144A114B03339B1A73
S11337009B0801339B0000220E48002114182160FD
S113371004329A42FAD10E4AFF210E4B8B43936036
S11337200D4A516880230B4353600C4B98470C4B54
S11337309847FEE700000020CC3C0000F800002081
S11337400C0B0020F800002004000020FC000020E6
S113375000ED00E00000000000400041A53B000037
S11337606537000038B5124D01242C70BFF35F8F0C
S113377062B6104B00221A705A709A70DA701C717B
S11337800D4B98470D494B681E2293431A1C042382
S113379013434B602C70BFF35F8F62B6084B98479E
S11337A0084B9847084B9847BFF34F8F30BFFBE750
S11337B0F7000020300700208D3600000040004153
S11337C0CD1E0000D11E0000A10A000008B5014B67
S11337D0984708BDD11E000008B5014B984708BDA5
S11337E0DD1E000008B5044B1B78002B03D0034BEF
S11337F09847034B984708BD2C0700205118000038
S1133800E91E000008B5014B984708BDD11E000011
S113381008B5014B984708BDD91E000008B5014BF7
S1133820984708BDD51E00000122024B1A700120E2
S11338307047C0462C0700200022014B1A707047C5
S11338402C07002008B5002902D0034B984701E05B
S1133850024B984708BDC046E11E0000E51E00006B
S1133860002243088B4274D303098B425FD3030ABB
S11338708B4244D3030B8B4228D3030C8B420DD3CE
S1133880FF22090212BA030C8B4202D3121209025C
S113389065D0030B8B4219D300E0090AC30B8B429A
S11338A001D3CB03C01A5241830B8B4201D38B0348
S11338B0C01A5241430B8B4201D34B03C01A5241ED
S11338C0030B8B4201D30B03C01A5241C30A8B4230
S11338D001D3CB02C01A5241830A8B4201D38B021B
S11338E0C01A5241430A8B4201D34B02C01A5241BF
S11338F0030A8B4201D30B02C01A5241CDD2C30931
S11339008B4201D3CB01C01A524183098B4201D3AC
S11339108B01C01A524143098B4201D34B01C01A97
S1133920524103098B4201D30B01C01A5241C3080F
S11339308B4201D3CB00C01A524183088B4201D37E
S11339408B00C01A524143088B4201D34B00C01A6A
S11339505241411A00D20146524110467047FFE7D6
S113396001B5002000F0FCF802BDC0460029F7D0E4
S113397003B5FFF775FF0EBC4243891A1847C046CA
S113398003460B437FD4002243088B4274D30309BC
S11339908B425FD3030A8B4244D3030B8B4228D35D
S11339A0030C8B420DD3FF22090212BA030C8B4283
S11339B002D31212090265D0030B8B4219D300E023
S11339C0090AC30B8B4201D3CB03C01A5241830BA8
S11339D08B4201D38B03C01A5241430B8B4201D358
S11339E04B03C01A5241030B8B4201D30B03C01A81
S11339F05241C30A8B4201D3CB02C01A5241830AFB
S1133A008B4201D38B02C01A5241430A8B4201D329
S1133A104B02C01A5241030A8B4201D30B02C01A53
S1133A205241CDD2C3098B4201D3CB01C01A5241BA
S1133A3083098B4201D38B01C01A524143098B4243
S1133A4001D34B01C01A524103098B4201D30B012C
S1133A50C01A5241C3088B4201D3CB00C01A524151
S1133A6083088B4201D38B00C01A524143088B4216
S1133A7001D34B00C01A5241411A00D201465241AF
S1133A80104670475DE0CA0F00D04942031000D3CE
S1133A904042534000229C4603098B422DD3030A23
S1133AA08B4212D3FC22890112BA030A8B420CD333
S1133AB0890192118B4208D3890192118B4204D35C
S1133AC089013AD0921100E08909C3098B4201D3DC
S1133AD0CB01C01A524183098B4201D38B01C01A16
S1133AE0524143098B4201D34B01C01A524103098D
S1133AF08B4201D30B01C01A5241C3088B4201D33C
S1133B00CB00C01A524183088B4201D38B00C01AE8
S1133B105241D9D243088B4201D34B00C01A5241BF
S1133B20411A00D20146634652415B10104601D34C
S1133B304042002B00D54942704763465B1000D3D6
S1133B40404201B5002000F00BF802BD0029F8D076
S1133B5003B5FFF715FF0EBC4243891A1847C04648
S1133B607047C046414208401C2101231B0498426F
S1133B7001D3000C10391B0A984201D3000A0839FA
S1133B801B09984201D30009043902A2105C401AAF
S1133B907047C0461B1C1D1D1E1E1E1E1F1F1F1FFF
S1133BA01F1F1F1F0E4B70B500251E1C0D4CE41A61
S1133BB0A410A54204D0AB00F35898470135F8E7A8
S1133BC000F074F8084B00251E1C084CE41AA410DD
S1133BD0A54204D0AB00F35898470135F8E770BD0F
S1133BE0B83C0000B83C0000B83C0000BC3C0000FD
S1133BF0002310B5934203D0CC5CC4540133F9E7DD
S1133C0010BD031C8218934202D019700133FAE7E5
S1133C1070470000000101017A21000088210000A2
S1133C20262200008E220000F22200000400080078
S1133C30700080000100000100020000030C10600D
S1133C401E2E00001A2E00001A2E00007C2E0000EA
S1133C507C2E0000342E0000242E00003A2E00009A
S1133C606A2E0000403000002030000020300000A8
S1133C70BA300000323000004E3000002430000022
S1133C805C3000009E300000F83000003A31000043
S1133C903A3100003A310000EA30000006310000F9
S1133CA0DC300000143100002A310000F8B5C046B1
S1133CB0F8BC08BC9E467047DD000000F8B5C0465D
S10F3CC0F8BC08BC9E467047B50000002C
S1133CCCE5050000F90300002501000029010000AE
S1133CDC190300003101000015010000210400004B
S1133CEC290100000000000043444320566972740B
S1133CFC75616C20436F6D0041544D454C000000C0
S1133D0C00030000000000000000000000000000A0
S1133D1C0000000000000000000000000000000093
S1133D2C04030904000000000C0000000000000063
S1133D3C0000000000000000050F0C000107100239
S1133D4C02000000A0000020980000207800002051
S1133D5C1400002000000020B4000020900000207B
S1133D6C1201010202000040EB03042400010102D1
S1133D7C0001000009024300020100C0FA0904001A
S1133D8C00010202010005240010010424020205B2
S1133D9C24060001052401030107058303400010D8
S1133DAC09040100020A000000070581024000001A
S10B3DBC0705020240000001AA
S90336BD09
